:100000000C9448000C9465000C9465000C946500F9
:100010000C9465000C9465000C9465000C94C2016E
:100020000C9465000C9465000C9465000C946500BC
:100030000C9465000C9465000C9465000C949C0570
:100040000C9465000C9465000C9465000C9465009C
:100050000C9465000C9465000C9465000C9465008C
:100060000C9465000C9465000C94A9060C94D206BF
:100070000C9465000C9465000C9465000C94670763
:100080000C9490070C9465000C9465000C9465002A
:1000900011241FBECFEFCDBFDFE3DEBF18E2A0E02B
:1000A000B8E2EEEDF6E102C005900D92AA33B10779
:1000B000D9F728E2AAE3B8E201C01D92AA3AB20732
:1000C000E1F70E94D4010C942F0B0C9400000E94C5
:1000D000D00208950F931F93CF93DF9300D000D0E9
:1000E000CDB7DEB780913A288130A1F120F082307F
:1000F00009F47EC097C080919928813081F028F062
:100100008330B9F0843031F08DC080913C280E945A
:10011000120388C080913C280E94120383C082E0B1
:1001200080933A2862E270E087E796E50E944A01F0
:1001300079C081E080933A286EE170E08AE996E523
:100140000E944A01E0E0FAE010A211A280818160E1
:10015000808368C080919928823019F08330D1F172
:1001600061C01B821C8219821A820E94F4018B8357
:100170009C838B819C819F938F9302E616E51F934E
:100180000F938FE998E29F938F930E944B080E94F0
:10019000F80164E670E00E94090869837A83898126
:1001A0009A819F938F931F930F938AE998E29F936D
:1001B0008F930E944B086FE978E28CE490E00E94F4
:1001C00098016AE978E284E590E00E949801CDBF49
:1001D000DEBF28C010923A28E0E0FAE080818E7FEE
:1001E00080836AE170E089EB96E50E944A011AC0BB
:1001F00080919928882319F0843031F013C08091C0
:100200003C280E9463010EC010923A286FE070E013
:1002100087E696E50E944A016AE170E089EB96E57F
:100220000E944A0185E0809399282496CDBFDEBFC5
:10023000DF91CF911F910F91089580913C288332D7
:1002400029F08F3239F08A3069F408C081E0809358
:100250009928089583E080939928089584E08093F5
:10026000992808951092992808950E9430060E94B6
:10027000FB0690913A28911102C00E94D20708957E
:100280000E9465060E94B90780933C2881E0809314
:100290003B2808950F931F93CF93DF93662371F04C
:1002A000EC016150062F10E00F5F1F4F080F191F60
:1002B00089910E94D207C017D107D1F7DF91CF9162
:1002C0001F910F9108958D3049F410924828109293
:1002D000432810923D2810923E28089590913D2881
:1002E000992349F0E92FF0E0E25CF74D80839F5FAE
:1002F00090933D280AC0843541F491E090933D28C5
:1003000090913E28992399F004C090913E2899231A
:1003100049F0E92FF0E0ED5BF74D80839F5F90930C
:100320003E2808958C3419F481E080933E28089586
:100330001F93CF93DF93182FEB0189ED96E50E9471
:1003400007031C821C3431F464E084E498E20E94C8
:10035000ED0205C064E08FE398E20E94ED0284EDB7
:1003600096E50E940703CE010E94070386ED96E5FD
:100370000E94070382E390E00E940506DF91CF917F
:100380001F9108951F920F920FB60F9211248F9311
:1003900082E08093992881E080930B0A8F910F90DF
:1003A0000FBE0F901F9018950E94670061E085E3D3
:1003B00091E00E949A0661E080E491E00E94580773
:1003C0000E94150685E080939928809199288530B0
:1003D00011F00E946A0080913B288823B1F31092AB
:1003E0003B280E941D01F1CF85E00E943B02089549
:1003F0000F931F9365E088E10E94CC05A0E0B0E078
:10040000072E73E1880F991FAA1FBB1F7A95D1F79A
:10041000702D9C01AD01012E13E15595479537953F
:1004200027951A95D1F7102DA4E6B0E00E941D087B
:100430008B019C01992324F4015F1F4F2F4F3F4FE5
:10044000D901C801689413F8B595A7959795879534
:100450001694D1F71F910F910895E0E0F6E083E143
:10046000828385E0868381E0808380E008958091A7
:100470000B0681700895E0E0F6E0868381E08087D6
:100480000E9437028823E1F3E0E0F6E02089318919
:10049000938591609387C901089580E0089541E0B4
:1004A00068ED81E690E00E94010680E0089578946E
:1004B00080E00895E0E1F4E0808188608193E83194
:1004C00084E0F807C9F7E0E3F4E080818860819375
:1004D000E83384E0F807C9F7E0E5F4E0808188605C
:1004E0008193E83584E0F807C9F7E0E7F4E080811C
:1004F00088608193E83784E0F807C9F7E0E9F4E021
:10050000808188608193E83984E0F807C9F7E0EBDF
:10051000F4E0808188608193E83B84E0F807C9F7C4
:100520000895E5E7F4E08081887F8460808380819E
:10053000877F80830E942D0208954198E1E5F4E0D1
:100540008081877F8083409A48980E943807089569
:10055000A198E1EBF4E08081877F8083A09AA8983E
:100560000E94F1070895039A0B98E3E1F4E080817B
:10057000877F808380818F7780838081887F80835D
:10058000029A0A98E2E1F4E08081877F808380818B
:100590008F7780838081887F80830E9407050895FC
:1005A0000E945A02009A0898049A0C980E944F02DE
:1005B0000E9491020E949D020E94A8020E942406AD
:1005C0000E9457020E9422060E94B3020E944D021E
:1005D000089508980895089A08950F931F93CF934C
:1005E000DF934FEF460F662369F0EC01042F10E014
:1005F0000F5F1F4F080F191F89910E941407C01722
:10060000D107D1F7DF91CF911F910F910895FC0190
:1006100001900020E9F73197BF01681B790B0E9418
:10062000ED0208950E9414070895E0EAF8E084813D
:1006300088608483858181608583E9E4F8E2808134
:100640008E7F808313868EE00895E9E4F8E280814E
:100650008E7F8083138680E00895E9E4F8E280814C
:10066000886080838181880F81608093A70884E0FF
:1006700008950E942D0308950E942D030895E9E432
:10068000F8E28081886080838181880F8093A70849
:1006900083E008950E943F030895E0EAF8E0848132
:1006A0008B7F848384E00895E0EAF8E084818B7F87
:1006B000848383E00895E0EAF8E0848184608483A1
:1006C00088E00895E0EAF8E0848188608483858189
:1006D00081608583E9E4F8E280818E7F808382E017
:1006E00083878EE00895CF93DF93E0EAF8E0858179
:1006F000806C85838091492883FF07C08091A5087D
:1007000084FF03C08FE0809353288091A50883FF66
:1007100003C080E1809353288091A50882FF03C025
:1007200081E180935328C9E4D8E2EA85F0E0EE0F36
:10073000FF1FE050F84D0190F081E02D09958A8768
:10074000DF91CF91089581E0089585E008956115C6
:10075000710581F090E0FC01EE0FFF1FEB5AF74DA1
:1007600060837183880F991FFC01EF59F74D408317
:100770005183089590E0FC01EE0FFF1FEB5AF74DF7
:1007800023EA33E020833183880F991FFC01EF595E
:10079000F74D108211820895E0EAF8E085818860C3
:1007A0008583A9E4B8E282E01B968C931B971E9682
:1007B000ED91FC911F975A968D919C915B970995AD
:1007C000823019F0833021F006C00E942D03089575
:1007D0000E943F0308950E9415030895E0EAF8E09F
:1007E000848184608483848183608483E9E4F8E283
:1007F00080818E7F8083138680E00895CF93DF937E
:10080000E9E4F8E28081877F808384819581019784
:1008100031F4E0EAF8E084818460848305C0E0EA92
:10082000F8E084818B7F8483E9E4F8E28481958118
:10083000019784839583892BA9F0DF01C281D3813D
:10084000E0EAF8E08085888312968D919C91139759
:10085000019612968D939C93139784818260848372
:1008600084E026C0A9E4B8E21296ED91FC911397BA
:100870008091A808808312968D919C911397019680
:1008800012968D939C9313978C9184608C931C96F5
:10089000ED91FC911D9758968D919C9159970995D2
:1008A0008250823018F40E945B0302C00E94EE0363
:1008B000DF91CF910895E0EAF8E08481836084833A
:1008C000E9E4F8E280818E7F8083138680E00895DA
:1008D000A9E4B8E28C91877F8C9382E01B968C937D
:1008E0001B975096ED91FC9151975C968D919C9140
:1008F0005D970995823019F0833021F006C00E947F
:100900002D0308950E943F0308950E945B040895FB
:100910008091A50884FF19C0A9E4B8E25296ED9130
:10092000FC9153975E968D919C915F9709958230CB
:1009300019F0833021F006C00E942D0308950E9413
:100940003F0308950E945B040895E9E4F8E2808182
:10095000877F8083A281B381CD01019682839383B7
:100960008C918093A80884819581019784839583D5
:10097000892B11F485E0089583E008958091A508FE
:1009800084FF19C0A9E4B8E25296ED91FC91539707
:100990005E968D919C915F970995823019F0833016
:1009A00021F006C00E942D0308950E943F03089580
:1009B0000E945B040895A9E4B8E28C9184608C9352
:1009C0001C96ED91FC911D9758968D919C9159978D
:1009D0000995833039F0843041F0823049F40E9427
:1009E0002D0308950E943F0308950E9488040895EE
:1009F0000E945B040895AB01BC0180E00E94A70344
:100A00000895AB01BC0182E00E94A7030895E0EACB
:100A1000F8E08DE2868381EC8383089590914928E4
:100A200091FD36C0E9E4F8E28183892F847F9EE05E
:100A3000928724EF31E02087318782608460808351
:100A400083EA93E084879587108E118E8687978737
:100A5000128E138E808B918B148E158E828B938BBE
:100A6000168E178E85EA93E0848B958B10A211A2C7
:100A7000E0EAF8E0848188608483858181608583F1
:100A80008581806C85838381806C838380E0089579
:100A900081E008958091A50882FF07C0E9E4F8E2AB
:100AA00080818E7F808382E083878091492880FDCA
:100AB00017C0E9E4F8E28D7F80838FEF8183A0EA9D
:100AC000B8E015968C911597806C15968C931597B8
:100AD00013968C9113978F7313968C938385089537
:100AE00081E008959C019091492892FF09C0E9E4B2
:100AF000F8E22283338364837583892F8B7F80831D
:100B000008959091492890FD11C0E9E4F8E29160C0
:100B10009083882321F081E08093532803C082E0F2
:100B2000809353280E94730380E0089581E0089524
:100B300080E00E94810508951F920F920FB60F92D8
:100B400011242F933F934F935F936F937F938F93D2
:100B50009F93AF93BF93EF93FF930E947303FF9113
:100B6000EF91BF91AF919F918F917F916F915F9125
:100B70004F913F912F910F900FBE0F901F9018959E
:100B800062E070E00E94720560E070E080E090E05A
:100B90000E94FB0482E008951F93CF93DF9300D05F
:100BA0001F92CDB7DEB7182F6B83812F0E940E05E1
:100BB0008823D9F3BE016F5F7F4F80EC95E00E94E0
:100BC000FB0461E070E0CE0103960E94720560E0D4
:100BD00070E08FEF95E00E9401050E9498050E9449
:100BE0004A058130E1F389819A81982789279827DE
:100BF0002396CDBFDEBFDF91CF911F91089583E093
:100C00000895FC0164BF40830895009769F020E0D7
:100C100030E0EBE7F2E93197F1F700C000002F5F19
:100C20003F4F82179307A9F708950E94E90281E0D8
:100C300090E00E9405060E94EB0282E390E00E9491
:100C40000506089580E00895E0E0FAE081E08287FB
:100C50008CEB9EEB86A397A38EE0808380E00895C3
:100C600090912008E0919028EF5FE77080918F28A5
:100C7000E81759F0E0939028F0E0EF56F74D908395
:100C800080918E288F5F80938E280895809183288D
:100C9000882389F0E0918428EF5FE770E09384284F
:100CA000F0E0EA57F74D80818093220880918328F5
:100CB00081508093832880918328811105C0E0E2D0
:100CC000F8E085818F7D8583089590914008E091BB
:100CD0007A28EF5FE77080917928E81759F0E09360
:100CE0007A28F0E0E558F74D9083809178288F5F5F
:100CF00080937828089580916D28882389F0E09169
:100D00006E28EF5FE770E0936E28F0E0E059F74D52
:100D100080818093420880916D28815080936D2856
:100D200080916D28811105C0E0E4F8E085818F7D18
:100D300085830895613019F0623031F00895809311
:100D40002A2890932B280895809328289093292867
:100D500008951F920F920FB60F9211242F933F9375
:100D60004F935F936F937F938F939F93AF93BF93B3
:100D7000EF93FF93E0912A28F0912B28309709F008
:100D80000995FF91EF91BF91AF919F918F917F91C5
:100D90006F915F914F913F912F910F900FBE0F90E8
:100DA0001F9018951F920F920FB60F9211242F9338
:100DB0003F934F935F936F937F938F939F93AF93E3
:100DC000BF93EF93FF93E0912828F0912928309763
:100DD00009F00995FF91EF91BF91AF919F918F918C
:100DE0007F916F915F914F913F912F910F900FBE27
:100DF0000F901F90189580918E288823E1F3E09141
:100E00008F28EF5FE770E0938F280FB6F8940F926A
:100E100080918E28815080938E280F900FBEF0E035
:100E2000EF56F74D80810895209185282F5F277018
:100E3000909183289830E1F3E22FF0E0EA57F74DE4
:100E40008083209385280FB6F8940F928091832891
:100E50008F5F809383280F900FBEE0E2F8E08581DA
:100E60008062858308950E94140780E090E00895D1
:100E7000E0E2F8E08BE591E08087918780E8858368
:100E800080EC868381E0838710928F2810929028CF
:100E900010928E2810928428109285281092832810
:100EA0008CE298E28093A6289093A72880E008958A
:100EB000613019F0623031F00895809326289093C4
:100EC00027280895809324289093252808951F9219
:100ED0000F920FB60F9211242F933F934F935F936E
:100EE0006F937F938F939F93AF93BF93EF93FF93F2
:100EF000E0912628F0912728309709F00995FF9175
:100F0000EF91BF91AF919F918F917F916F915F9181
:100F10004F913F912F910F900FBE0F901F901895FA
:100F20001F920F920FB60F9211242F933F934F935E
:100F30005F936F937F938F939F93AF93BF93EF9341
:100F4000FF93E0912428F0912528309709F0099526
:100F5000FF91EF91BF91AF919F918F917F916F9191
:100F60005F914F913F912F910F900FBE0F901F9067
:100F70001895809178288823E1F3E0917928EF5F34
:100F8000E770E09379280FB6F8940F928091782853
:100F90008150809378280F900FBEF0E0E558F74D10
:100FA0008081089520916F282F5F277090916D2880
:100FB0009830E1F3E22FF0E0E059F74D8083209381
:100FC0006F280FB6F8940F9280916D288F5F8093F1
:100FD0006D280F900FBEE0E4F8E085818062858384
:100FE0000895E0E4F8E08BE591E08087918780E860
:100FF000858380EC86831092792810927A2810924B
:10100000782810926E2810926F2810926D2880E038
:10101000089597FB072E16F4009407D077FD09D0AA
:101020000E94280807FC05D03EF4909581959F4FBB
:101030000895709561957F4F08950E943C08A59F83
:10104000900DB49F900DA49F800D911D11240895C3
:10105000AA1BBB1B51E107C0AA1FBB1FA617B707DE
:1010600010F0A61BB70B881F991F5A95A9F78095FA
:101070009095BC01CD010895A29FB001B39FC0011E
:10108000A39F700D811D1124911DB29F700D811DB4
:101090001124911D0895AEE0B0E0E1E5F8E00C9474
:1010A0000C0B0D891E8986E08C8309831A838FEFD0
:1010B0009FE78D839E83AE01475E5F4F6F89788D7A
:1010C000CE0101960E946D08EF81F885E00FF11FB7
:1010D00010822E96E4E00C94250BABE0B0E0E3E741
:1010E000F8E00C94FE0A6C017B018A01FC01168277
:1010F0001782838181FFCCC1CE0101963C01F601AC
:101100009381F70193FD859193FF81917F0188235E
:1011100009F4BAC1853239F493FD859193FF819129
:101120007F01853229F4B60190E00E94640AE7CF7E
:10113000912C212C312CFFE1F315D8F08B3279F072
:1011400038F4803279F08332A1F4232D20611DC060
:101150008D3261F0803369F4232D216016C0832D18
:101160008260382EE32DE4603E2E2AC0F32DF86015
:101170001DC037FC2DC020ED280F2A3040F08E32E4
:10118000B9F436FC81C1232D2064322E19C036FEFD
:1011900006C08AE0989E200D1124922E11C0EAE02C
:1011A0002E9E200D1124222EF32DF0623F2E08C01A
:1011B0008C3621F4832D8068382E02C0883641F4A5
:1011C000F70193FD859193FF81917F018111B3CF49
:1011D000982F9F7D9554933028F40C5F1F4F9FE309
:1011E00099830DC0833631F0833771F0833509F070
:1011F00059C021C0F801808189830E5F1F4F882468
:101200008394912C530113C02801F2E04F0E511C1E
:10121000F801A080B18036FE03C0692D70E002C0E5
:101220006FEF7FEFC5010E94590A4C018201F32D37
:10123000FF773F2E16C0280122E0420E511CF80114
:10124000A080B18036FE03C0692D70E002C06FEF50
:101250007FEFC5010E944E0A4C01F32DF0683F2E2E
:10126000820133FC1BC0822D90E088169906B0F4F1
:10127000B60180E290E00E94640A2A94F4CFF5015E
:1012800037FC859137FE81915F01B60190E00E94A5
:10129000640A21102A9421E0821A91088114910491
:1012A00071F7E8C0843611F0893641F5F80137FE50
:1012B00007C060817181828193810C5F1F4F08C0DC
:1012C00060817181072E000C880B990B0E5F1F4FF8
:1012D000F32DFF763F2E97FF09C09095809570956E
:1012E00061957F4F8F4F9F4FF0683F2E2AE030E08F
:1012F000A3010E94A00A882E861845C0853731F4C4
:10130000232D2F7EB22E2AE030E025C0932D997F29
:10131000B92E8F36C1F018F4883579F0B5C0803712
:1013200019F0883721F0B0C0E92FE061BE2EB4FE7D
:101330000DC0FB2DF460BF2E09C034FE0AC0292F5A
:101340002660B22E06C028E030E005C020E130E083
:1013500002C020E132E0F801B7FE07C06081718170
:10136000828193810C5F1F4F06C06081718180E094
:1013700090E00E5F1F4FA3010E94A00A882E8618DE
:10138000FB2DFF773F2E36FE0DC0232D2E7FA22E84
:10139000891458F434FE0BC032FC09C0832D8E7EB4
:1013A000A82E05C0B82CA32C03C0B82C01C0B92CA2
:1013B000A4FE0FC0FE01E80DF11D8081803321F4F1
:1013C0009A2D997EA92E09C0A2FE06C0B394B394AB
:1013D00004C08A2D867809F0B394A3FC11C0A0FE46
:1013E00006C0B21488F4280C922C9B180EC0B214BC
:1013F00060F4B60180E290E00E94640AB394F7CFF3
:10140000B21418F42B1802C0982C212CA4FE10C082
:10141000B60180E390E00E94640AA2FE17C0A1FC1E
:1014200003C088E790E002C088E590E0B6010CC0F8
:101430008A2D867859F0A1FE02C08BE201C080E2BD
:10144000A7FC8DE2B60190E00E94640A891438F48A
:10145000B60180E390E00E94640A9A94F7CF8A94E0
:10146000F301E80DF11D8081B60190E00E94640A4D
:101470008110F5CF222009F442CEB60180E290E03F
:101480000E94640A2A94F6CFF6018681978102C0F1
:101490008FEF9FEF2B96E2E10C94170BFC01059068
:1014A000615070400110D8F7809590958E0F9F1F66
:1014B0000895FC016150704001900110D8F78095AB
:1014C00090958E0F9F1F08950F931F93CF93DF93D7
:1014D000FB01238121FD03C08FEF9FEF2CC022FF72
:1014E00016C046815781248135814217530744F441
:1014F000A081B1819D012F5F3F4F208331838C9369
:10150000268137812F5F3F4F2683378314C08B019D
:10151000EC01FB010084F185E02D0995892BE1F6B2
:10152000D80116968D919C911797019616968D93DA
:101530009C931797CE01DF91CF911F910F91089542
:10154000FA01AA27283051F1203181F1E8946F93F4
:101550006E7F6E5F7F4F8F4F9F4FAF4FB1E03ED09A
:10156000B4E03CD0670F781F891F9A1FA11D680F38
:10157000791F8A1F911DA11D6A0F711D811D911D6B
:10158000A11D20D009F468943F912AE0269F1124E0
:101590003019305D3193DEF6CF010895462F477044
:1015A000405D4193B3E00FD0C9F7F6CF462F4F709F
:1015B000405D4A3318F0495D31FD4052419302D0FD
:1015C000A9F7EACFB4E0A6959795879577956795A3
:1015D000BA95C9F700976105710508959B01AC01A3
:1015E0000A2E06945795479537952795BA95C9F7CA
:1015F000620F731F841F951FA01D08952F923F92A5
:101600004F925F926F927F928F929F92AF92BF9212
:10161000CF92DF92EF92FF920F931F93CF93DF93BE
:10162000CDB7DEB7CA1BDB0BCDBFDEBF09942A885E
:10163000398848885F846E847D848C849B84AA84E6
:10164000B984C884DF80EE80FD800C811B81AA8173
:10165000B981CE0FD11DCDBFDEBFED010895F89445
:02166000FFCFBA
:10166200252E34780048616E646C65722057726969
:101672007474656E000D0A43686172616374657209
:10168200697374696373204D6F6465204163746983
:1016920076617465640D0A000D0A4170706C6963AD
:1016A2006174696F6E204D6F646520416374697661
:1016B200617465640D0A000D0A436F6D6D616E649D
:1016C200204D6F6465204163746976617465640DB1
:0C16D2000A002C000D0A005348572C00A1
:1016DE0025032D033F038804FE03BE043C034A0387
:1016EE0039035B044D035403EE035B0315036804D7
:1016FE00CC0362037B066506460630060000000238
:0A170E000000000033070000000097
:00000001FF
